{
  "contractName": "ERC865Token",
  "abi": [
    {
      "constant": false,
      "inputs": [
        {
          "name": "_spender",
          "type": "address"
        },
        {
          "name": "_value",
          "type": "uint256"
        }
      ],
      "name": "approve",
      "outputs": [
        {
          "name": "",
          "type": "bool"
        }
      ],
      "payable": false,
      "stateMutability": "nonpayable",
      "type": "function"
    },
    {
      "constant": true,
      "inputs": [],
      "name": "totalSupply",
      "outputs": [
        {
          "name": "",
          "type": "uint256"
        }
      ],
      "payable": false,
      "stateMutability": "view",
      "type": "function"
    },
    {
      "constant": false,
      "inputs": [
        {
          "name": "_from",
          "type": "address"
        },
        {
          "name": "_to",
          "type": "address"
        },
        {
          "name": "_value",
          "type": "uint256"
        }
      ],
      "name": "transferFrom",
      "outputs": [
        {
          "name": "",
          "type": "bool"
        }
      ],
      "payable": false,
      "stateMutability": "nonpayable",
      "type": "function"
    },
    {
      "constant": false,
      "inputs": [
        {
          "name": "_spender",
          "type": "address"
        },
        {
          "name": "_subtractedValue",
          "type": "uint256"
        }
      ],
      "name": "decreaseApproval",
      "outputs": [
        {
          "name": "",
          "type": "bool"
        }
      ],
      "payable": false,
      "stateMutability": "nonpayable",
      "type": "function"
    },
    {
      "constant": true,
      "inputs": [
        {
          "name": "_owner",
          "type": "address"
        }
      ],
      "name": "balanceOf",
      "outputs": [
        {
          "name": "",
          "type": "uint256"
        }
      ],
      "payable": false,
      "stateMutability": "view",
      "type": "function"
    },
    {
      "constant": false,
      "inputs": [
        {
          "name": "_to",
          "type": "address"
        },
        {
          "name": "_value",
          "type": "uint256"
        }
      ],
      "name": "transfer",
      "outputs": [
        {
          "name": "",
          "type": "bool"
        }
      ],
      "payable": false,
      "stateMutability": "nonpayable",
      "type": "function"
    },
    {
      "constant": false,
      "inputs": [
        {
          "name": "_spender",
          "type": "address"
        },
        {
          "name": "_addedValue",
          "type": "uint256"
        }
      ],
      "name": "increaseApproval",
      "outputs": [
        {
          "name": "",
          "type": "bool"
        }
      ],
      "payable": false,
      "stateMutability": "nonpayable",
      "type": "function"
    },
    {
      "constant": true,
      "inputs": [
        {
          "name": "_owner",
          "type": "address"
        },
        {
          "name": "_spender",
          "type": "address"
        }
      ],
      "name": "allowance",
      "outputs": [
        {
          "name": "",
          "type": "uint256"
        }
      ],
      "payable": false,
      "stateMutability": "view",
      "type": "function"
    },
    {
      "anonymous": false,
      "inputs": [
        {
          "indexed": true,
          "name": "from",
          "type": "address"
        },
        {
          "indexed": true,
          "name": "to",
          "type": "address"
        },
        {
          "indexed": true,
          "name": "delegate",
          "type": "address"
        },
        {
          "indexed": false,
          "name": "amount",
          "type": "uint256"
        },
        {
          "indexed": false,
          "name": "fee",
          "type": "uint256"
        }
      ],
      "name": "TransferPreSigned",
      "type": "event"
    },
    {
      "anonymous": false,
      "inputs": [
        {
          "indexed": true,
          "name": "from",
          "type": "address"
        },
        {
          "indexed": true,
          "name": "to",
          "type": "address"
        },
        {
          "indexed": true,
          "name": "delegate",
          "type": "address"
        },
        {
          "indexed": false,
          "name": "amount",
          "type": "uint256"
        },
        {
          "indexed": false,
          "name": "fee",
          "type": "uint256"
        }
      ],
      "name": "ApprovalPreSigned",
      "type": "event"
    },
    {
      "anonymous": false,
      "inputs": [
        {
          "indexed": true,
          "name": "owner",
          "type": "address"
        },
        {
          "indexed": true,
          "name": "spender",
          "type": "address"
        },
        {
          "indexed": false,
          "name": "value",
          "type": "uint256"
        }
      ],
      "name": "Approval",
      "type": "event"
    },
    {
      "anonymous": false,
      "inputs": [
        {
          "indexed": true,
          "name": "from",
          "type": "address"
        },
        {
          "indexed": true,
          "name": "to",
          "type": "address"
        },
        {
          "indexed": false,
          "name": "value",
          "type": "uint256"
        }
      ],
      "name": "Transfer",
      "type": "event"
    },
    {
      "constant": false,
      "inputs": [
        {
          "name": "_signature",
          "type": "bytes"
        },
        {
          "name": "_to",
          "type": "address"
        },
        {
          "name": "_value",
          "type": "uint256"
        },
        {
          "name": "_fee",
          "type": "uint256"
        },
        {
          "name": "_nonce",
          "type": "uint256"
        }
      ],
      "name": "transferPreSigned",
      "outputs": [
        {
          "name": "",
          "type": "bool"
        }
      ],
      "payable": false,
      "stateMutability": "nonpayable",
      "type": "function"
    },
    {
      "constant": false,
      "inputs": [
        {
          "name": "_signature",
          "type": "bytes"
        },
        {
          "name": "_spender",
          "type": "address"
        },
        {
          "name": "_value",
          "type": "uint256"
        },
        {
          "name": "_fee",
          "type": "uint256"
        },
        {
          "name": "_nonce",
          "type": "uint256"
        }
      ],
      "name": "approvePreSigned",
      "outputs": [
        {
          "name": "",
          "type": "bool"
        }
      ],
      "payable": false,
      "stateMutability": "nonpayable",
      "type": "function"
    },
    {
      "constant": false,
      "inputs": [
        {
          "name": "_signature",
          "type": "bytes"
        },
        {
          "name": "_spender",
          "type": "address"
        },
        {
          "name": "_addedValue",
          "type": "uint256"
        },
        {
          "name": "_fee",
          "type": "uint256"
        },
        {
          "name": "_nonce",
          "type": "uint256"
        }
      ],
      "name": "increaseApprovalPreSigned",
      "outputs": [
        {
          "name": "",
          "type": "bool"
        }
      ],
      "payable": false,
      "stateMutability": "nonpayable",
      "type": "function"
    },
    {
      "constant": false,
      "inputs": [
        {
          "name": "_signature",
          "type": "bytes"
        },
        {
          "name": "_spender",
          "type": "address"
        },
        {
          "name": "_subtractedValue",
          "type": "uint256"
        },
        {
          "name": "_fee",
          "type": "uint256"
        },
        {
          "name": "_nonce",
          "type": "uint256"
        }
      ],
      "name": "decreaseApprovalPreSigned",
      "outputs": [
        {
          "name": "",
          "type": "bool"
        }
      ],
      "payable": false,
      "stateMutability": "nonpayable",
      "type": "function"
    },
    {
      "constant": false,
      "inputs": [
        {
          "name": "_signature",
          "type": "bytes"
        },
        {
          "name": "_from",
          "type": "address"
        },
        {
          "name": "_to",
          "type": "address"
        },
        {
          "name": "_value",
          "type": "uint256"
        },
        {
          "name": "_fee",
          "type": "uint256"
        },
        {
          "name": "_nonce",
          "type": "uint256"
        }
      ],
      "name": "transferFromPreSigned",
      "outputs": [
        {
          "name": "",
          "type": "bool"
        }
      ],
      "payable": false,
      "stateMutability": "nonpayable",
      "type": "function"
    },
    {
      "constant": true,
      "inputs": [
        {
          "name": "_token",
          "type": "address"
        },
        {
          "name": "_to",
          "type": "address"
        },
        {
          "name": "_value",
          "type": "uint256"
        },
        {
          "name": "_fee",
          "type": "uint256"
        },
        {
          "name": "_nonce",
          "type": "uint256"
        }
      ],
      "name": "transferPreSignedHashing",
      "outputs": [
        {
          "name": "",
          "type": "bytes32"
        }
      ],
      "payable": false,
      "stateMutability": "pure",
      "type": "function"
    },
    {
      "constant": true,
      "inputs": [
        {
          "name": "_token",
          "type": "address"
        },
        {
          "name": "_spender",
          "type": "address"
        },
        {
          "name": "_value",
          "type": "uint256"
        },
        {
          "name": "_fee",
          "type": "uint256"
        },
        {
          "name": "_nonce",
          "type": "uint256"
        }
      ],
      "name": "approvePreSignedHashing",
      "outputs": [
        {
          "name": "",
          "type": "bytes32"
        }
      ],
      "payable": false,
      "stateMutability": "pure",
      "type": "function"
    },
    {
      "constant": true,
      "inputs": [
        {
          "name": "_token",
          "type": "address"
        },
        {
          "name": "_spender",
          "type": "address"
        },
        {
          "name": "_addedValue",
          "type": "uint256"
        },
        {
          "name": "_fee",
          "type": "uint256"
        },
        {
          "name": "_nonce",
          "type": "uint256"
        }
      ],
      "name": "increaseApprovalPreSignedHashing",
      "outputs": [
        {
          "name": "",
          "type": "bytes32"
        }
      ],
      "payable": false,
      "stateMutability": "pure",
      "type": "function"
    },
    {
      "constant": true,
      "inputs": [
        {
          "name": "_token",
          "type": "address"
        },
        {
          "name": "_spender",
          "type": "address"
        },
        {
          "name": "_subtractedValue",
          "type": "uint256"
        },
        {
          "name": "_fee",
          "type": "uint256"
        },
        {
          "name": "_nonce",
          "type": "uint256"
        }
      ],
      "name": "decreaseApprovalPreSignedHashing",
      "outputs": [
        {
          "name": "",
          "type": "bytes32"
        }
      ],
      "payable": false,
      "stateMutability": "pure",
      "type": "function"
    },
    {
      "constant": true,
      "inputs": [
        {
          "name": "_token",
          "type": "address"
        },
        {
          "name": "_from",
          "type": "address"
        },
        {
          "name": "_to",
          "type": "address"
        },
        {
          "name": "_value",
          "type": "uint256"
        },
        {
          "name": "_fee",
          "type": "uint256"
        },
        {
          "name": "_nonce",
          "type": "uint256"
        }
      ],
      "name": "transferFromPreSignedHashing",
      "outputs": [
        {
          "name": "",
          "type": "bytes32"
        }
      ],
      "payable": false,
      "stateMutability": "pure",
      "type": "function"
    },
    {
      "constant": true,
      "inputs": [
        {
          "name": "hash",
          "type": "bytes32"
        },
        {
          "name": "sig",
          "type": "bytes"
        }
      ],
      "name": "recover",
      "outputs": [
        {
          "name": "",
          "type": "address"
        }
      ],
      "payable": false,
      "stateMutability": "pure",
      "type": "function"
    }
  ],
  "bytecode": "0x608060405234801561001057600080fd5b50613d46806100206000396000f300608060405260043610610107576000357c0100000000000000000000000000000000000000000000000000000000900463ffffffff168063095ea7b31461010c5780631296830d1461017157806315420b711461023057806318160ddd146102cd57806319045a25146102f857806323b872dd146103af57806359388d7814610434578063617b390b146104d1578063661884631461059057806370a08231146105f55780638be527831461064c578063a45f71ff1461070b578063a9059cbb146107a8578063adb8249e1461080d578063b7656dc5146108cc578063bca5051514610989578063d73dd62314610a68578063dd62ed3e14610acd578063f7ac9c2e14610b44575b600080fd5b34801561011857600080fd5b50610157600480360381019080803573ffffffffffffffffffffffffffffffffffffffff16906020019092919080359060200190929190505050610be1565b604051808215151515815260200191505060405180910390f35b34801561017d57600080fd5b50610216600480360381019080803590602001908201803590602001908080601f0160208091040260200160405190810160405280939291908181526020018383808284378201915050505050509192919290803573ffffffffffffffffffffffffffffffffffffffff169060200190929190803590602001909291908035906020019092919080359060200190929190505050610cd3565b604051808215151515815260200191505060405180910390f35b34801561023c57600080fd5b506102af600480360381019080803573ffffffffffffffffffffffffffffffffffffffff169060200190929190803573ffffffffffffffffffffffffffffffffffffffff1690602001909291908035906020019092919080359060200190929190803590602001909291905050506111a1565b60405180826000191660001916815260200191505060405180910390f35b3480156102d957600080fd5b506102e261132f565b6040518082815260200191505060405180910390f35b34801561030457600080fd5b5061036d6004803603810190808035600019169060200190929190803590602001908201803590602001908080601f0160208091040260200160405190810160405280939291908181526020018383808284378201915050505050509192919290505050611339565b604051808273ffffffffffffffffffffffffffffffffffffffff1673ffffffffffffffffffffffffffffffffffffffff16815260200191505060405180910390f35b3480156103bb57600080fd5b5061041a600480360381019080803573ffffffffffffffffffffffffffffffffffffffff169060200190929190803573ffffffffffffffffffffffffffffffffffffffff16906020019092919080359060200190929190505050611431565b604051808215151515815260200191505060405180910390f35b34801561044057600080fd5b506104b3600480360381019080803573ffffffffffffffffffffffffffffffffffffffff169060200190929190803573ffffffffffffffffffffffffffffffffffffffff1690602001909291908035906020019092919080359060200190929190803590602001909291905050506117ec565b60405180826000191660001916815260200191505060405180910390f35b3480156104dd57600080fd5b50610576600480360381019080803590602001908201803590602001908080601f0160208091040260200160405190810160405280939291908181526020018383808284378201915050505050509192919290803573ffffffffffffffffffffffffffffffffffffffff16906020019092919080359060200190929190803590602001909291908035906020019092919050505061197a565b604051808215151515815260200191505060405180910390f35b34801561059c57600080fd5b506105db600480360381019080803573ffffffffffffffffffffffffffffffffffffffff16906020019092919080359060200190929190505050611e24565b604051808215151515815260200191505060405180910390f35b34801561060157600080fd5b50610636600480360381019080803573ffffffffffffffffffffffffffffffffffffffff1690602001909291905050506120b6565b6040518082815260200191505060405180910390f35b34801561065857600080fd5b506106f1600480360381019080803590602001908201803590602001908080601f0160208091040260200160405190810160405280939291908181526020018383808284378201915050505050509192919290803573ffffffffffffffffffffffffffffffffffffffff1690602001909291908035906020019092919080359060200190929190803590602001909291905050506120fe565b604051808215151515815260200191505060405180910390f35b34801561071757600080fd5b5061078a600480360381019080803573ffffffffffffffffffffffffffffffffffffffff169060200190929190803573ffffffffffffffffffffffffffffffffffffffff169060200190929190803590602001909291908035906020019092919080359060200190929190505050612748565b60405180826000191660001916815260200191505060405180910390f35b3480156107b457600080fd5b506107f3600480360381019080803573ffffffffffffffffffffffffffffffffffffffff169060200190929190803590602001909291905050506128d6565b604051808215151515815260200191505060405180910390f35b34801561081957600080fd5b506108b2600480360381019080803590602001908201803590602001908080601f0160208091040260200160405190810160405280939291908181526020018383808284378201915050505050509192919290803573ffffffffffffffffffffffffffffffffffffffff169060200190929190803590602001909291908035906020019092919080359060200190929190505050612af6565b604051808215151515815260200191505060405180910390f35b3480156108d857600080fd5b5061096b600480360381019080803573ffffffffffffffffffffffffffffffffffffffff169060200190929190803573ffffffffffffffffffffffffffffffffffffffff169060200190929190803573ffffffffffffffffffffffffffffffffffffffff169060200190929190803590602001909291908035906020019092919080359060200190929190505050613126565b60405180826000191660001916815260200191505060405180910390f35b34801561099557600080fd5b50610a4e600480360381019080803590602001908201803590602001908080601f0160208091040260200160405190810160405280939291908181526020018383808284378201915050505050509192919290803573ffffffffffffffffffffffffffffffffffffffff169060200190929190803573ffffffffffffffffffffffffffffffffffffffff1690602001909291908035906020019092919080359060200190929190803590602001909291905050506132f8565b604051808215151515815260200191505060405180910390f35b348015610a7457600080fd5b50610ab3600480360381019080803573ffffffffffffffffffffffffffffffffffffffff169060200190929190803590602001909291905050506138d4565b604051808215151515815260200191505060405180910390f35b348015610ad957600080fd5b50610b2e600480360381019080803573ffffffffffffffffffffffffffffffffffffffff169060200190929190803573ffffffffffffffffffffffffffffffffffffffff169060200190929190505050613ad0565b6040518082815260200191505060405180910390f35b348015610b5057600080fd5b50610bc3600480360381019080803573ffffffffffffffffffffffffffffffffffffffff169060200190929190803573ffffffffffffffffffffffffffffffffffffffff169060200190929190803590602001909291908035906020019092919080359060200190929190505050613b57565b60405180826000191660001916815260200191505060405180910390f35b600081600260003373ffffffffffffffffffffffffffffffffffffffff1673ffffffffffffffffffffffffffffffffffffffff16815260200190815260200160002060008573ffffffffffffffffffffffffffffffffffffffff1673ffffffffffffffffffffffffffffffffffffffff168152602001908152602001600020819055508273ffffffffffffffffffffffffffffffffffffffff163373ffffffffffffffffffffffffffffffffffffffff167f8c5be1e5ebec7d5bd14f71427d1e84f3dd0314c0f7b2291e5b200ac8c7c3b925846040518082815260200191505060405180910390a36001905092915050565b60008060008073ffffffffffffffffffffffffffffffffffffffff168773ffffffffffffffffffffffffffffffffffffffff1614151515610d1357600080fd5b600015156003896040518082805190602001908083835b602083101515610d4f5780518252602082019150602081019050602083039250610d2a565b6001836020036101000a038019825116818451168082178552505050505050905001915050908152602001604051809103902060009054906101000a900460ff161515141515610d9e57600080fd5b610dab30888888886111a1565b9150610db78289611339565b9050600073ffffffffffffffffffffffffffffffffffffffff168173ffffffffffffffffffffffffffffffffffffffff1614151515610df557600080fd5b610e5885610e4a886000808673ffffffffffffffffffffffffffffffffffffffff1673ffffffffffffffffffffffffffffffffffffffff16815260200190815260200160002054613ce590919063ffffffff16565b613ce590919063ffffffff16565b6000808373ffffffffffffffffffffffffffffffffffffffff1673ffffffffffffffffffffffffffffffffffffffff16815260200190815260200160002081905550610eeb866000808a73ffffffffffffffffffffffffffffffffffffffff1673ffffffffffffffffffffffffffffffffffffffff16815260200190815260200160002054613cfe90919063ffffffff16565b6000808973ffffffffffffffffffffffffffffffffffffffff1673ffffffffffffffffffffffffffffffffffffffff16815260200190815260200160002081905550610f7e856000803373ffffffffffffffffffffffffffffffffffffffff1673ffffffffffffffffffffffffffffffffffffffff16815260200190815260200160002054613cfe90919063ffffffff16565b6000803373ffffffffffffffffffffffffffffffffffffffff1673ffffffffffffffffffffffffffffffffffffffff1681526020019081526020016000208190555060016003896040518082805190602001908083835b602083101515610ffa5780518252602082019150602081019050602083039250610fd5565b6001836020036101000a038019825116818451168082178552505050505050905001915050908152602001604051809103902060006101000a81548160ff0219169083151502179055508673ffffffffffffffffffffffffffffffffffffffff168173ffffffffffffffffffffffffffffffffffffffff167fddf252ad1be2c89b69c2b068fc378daa952ba7f163c4a11628f55a4df523b3ef886040518082815260200191505060405180910390a33373ffffffffffffffffffffffffffffffffffffffff168173ffffffffffffffffffffffffffffffffffffffff167fddf252ad1be2c89b69c2b068fc378daa952ba7f163c4a11628f55a4df523b3ef876040518082815260200191505060405180910390a33373ffffffffffffffffffffffffffffffffffffffff168773ffffffffffffffffffffffffffffffffffffffff168273ffffffffffffffffffffffffffffffffffffffff167fec5a73fd1f178be20c1bca1b406cbf4b5c20d833b66e582fc122fb4baa0fc2a48989604051808381526020018281526020019250505060405180910390a460019250505095945050505050565b60006348664c167c010000000000000000000000000000000000000000000000000000000002868686868660405160200180877bffffffffffffffffffffffffffffffffffffffffffffffffffffffff19167bffffffffffffffffffffffffffffffffffffffffffffffffffffffff191681526004018673ffffffffffffffffffffffffffffffffffffffff1673ffffffffffffffffffffffffffffffffffffffff166c010000000000000000000000000281526014018573ffffffffffffffffffffffffffffffffffffffff1673ffffffffffffffffffffffffffffffffffffffff166c0100000000000000000000000002815260140184815260200183815260200182815260200196505050505050506040516020818303038152906040526040518082805190602001908083835b6020831015156112f757805182526020820191506020810190506020830392506112d2565b6001836020036101000a0380198251168184511680821785525050505050509050019150506040518091039020905095945050505050565b6000600154905090565b600080600080604185511415156113535760009350611428565b6020850151925060408501519150606085015160001a9050601b8160ff16101561137e57601b810190505b601b8160ff16141580156113965750601c8160ff1614155b156113a45760009350611428565b600186828585604051600081526020016040526040518085600019166000191681526020018460ff1660ff1681526020018360001916600019168152602001826000191660001916815260200194505050505060206040516020810390808403906000865af115801561141b573d6000803e3d6000fd5b5050506020604051035193505b50505092915050565b60008060008573ffffffffffffffffffffffffffffffffffffffff1673ffffffffffffffffffffffffffffffffffffffff16815260200190815260200160002054821115151561148057600080fd5b600260008573ffffffffffffffffffffffffffffffffffffffff1673ffffffffffffffffffffffffffffffffffffffff16815260200190815260200160002060003373ffffffffffffffffffffffffffffffffffffffff1673ffffffffffffffffffffffffffffffffffffffff16815260200190815260200160002054821115151561150b57600080fd5b600073ffffffffffffffffffffffffffffffffffffffff168373ffffffffffffffffffffffffffffffffffffffff161415151561154757600080fd5b611598826000808773ffffffffffffffffffffffffffffffffffffffff1673ffffffffffffffffffffffffffffffffffffffff16815260200190815260200160002054613ce590919063ffffffff16565b6000808673ffffffffffffffffffffffffffffffffffffffff1673ffffffffffffffffffffffffffffffffffffffff1681526020019081526020016000208190555061162b826000808673ffffffffffffffffffffffffffffffffffffffff1673ffffffffffffffffffffffffffffffffffffffff16815260200190815260200160002054613cfe90919063ffffffff16565b6000808573ffffffffffffffffffffffffffffffffffffffff1673ffffffffffffffffffffffffffffffffffffffff168152602001908152602001600020819055506116fc82600260008773ffffffffffffffffffffffffffffffffffffffff1673ffffffffffffffffffffffffffffffffffffffff16815260200190815260200160002060003373ffffffffffffffffffffffffffffffffffffffff1673ffffffffffffffffffffffffffffffffffffffff16815260200190815260200160002054613ce590919063ffffffff16565b600260008673ffffffffffffffffffffffffffffffffffffffff1673ffffffffffffffffffffffffffffffffffffffff16815260200190815260200160002060003373ffffffffffffffffffffffffffffffffffffffff1673ffffffffffffffffffffffffffffffffffffffff168152602001908152602001600020819055508273ffffffffffffffffffffffffffffffffffffffff168473ffffffffffffffffffffffffffffffffffffffff167fddf252ad1be2c89b69c2b068fc378daa952ba7f163c4a11628f55a4df523b3ef846040518082815260200191505060405180910390a3600190509392505050565b60006359388d787c010000000000000000000000000000000000000000000000000000000002868686868660405160200180877bffffffffffffffffffffffffffffffffffffffffffffffffffffffff19167bffffffffffffffffffffffffffffffffffffffffffffffffffffffff191681526004018673ffffffffffffffffffffffffffffffffffffffff1673ffffffffffffffffffffffffffffffffffffffff166c010000000000000000000000000281526014018573ffffffffffffffffffffffffffffffffffffffff1673ffffffffffffffffffffffffffffffffffffffff166c0100000000000000000000000002815260140184815260200183815260200182815260200196505050505050506040516020818303038152906040526040518082805190602001908083835b602083101515611942578051825260208201915060208101905060208303925061191d565b6001836020036101000a0380198251168184511680821785525050505050509050019150506040518091039020905095945050505050565b60008060008073ffffffffffffffffffffffffffffffffffffffff168773ffffffffffffffffffffffffffffffffffffffff16141515156119ba57600080fd5b600015156003896040518082805190602001908083835b6020831015156119f657805182526020820191506020810190506020830392506119d1565b6001836020036101000a038019825116818451168082178552505050505050905001915050908152602001604051809103902060009054906101000a900460ff161515141515611a4557600080fd5b611a523088888888613b57565b9150611a5e8289611339565b9050600073ffffffffffffffffffffffffffffffffffffffff168173ffffffffffffffffffffffffffffffffffffffff1614151515611a9c57600080fd5b85600260008373ffffffffffffffffffffffffffffffffffffffff1673ffffffffffffffffffffffffffffffffffffffff16815260200190815260200160002060008973ffffffffffffffffffffffffffffffffffffffff1673ffffffffffffffffffffffffffffffffffffffff16815260200190815260200160002081905550611b6e856000808473ffffffffffffffffffffffffffffffffffffffff1673ffffffffffffffffffffffffffffffffffffffff16815260200190815260200160002054613ce590919063ffffffff16565b6000808373ffffffffffffffffffffffffffffffffffffffff1673ffffffffffffffffffffffffffffffffffffffff16815260200190815260200160002081905550611c01856000803373ffffffffffffffffffffffffffffffffffffffff1673ffffffffffffffffffffffffffffffffffffffff16815260200190815260200160002054613cfe90919063ffffffff16565b6000803373ffffffffffffffffffffffffffffffffffffffff1673ffffffffffffffffffffffffffffffffffffffff1681526020019081526020016000208190555060016003896040518082805190602001908083835b602083101515611c7d5780518252602082019150602081019050602083039250611c58565b6001836020036101000a038019825116818451168082178552505050505050905001915050908152602001604051809103902060006101000a81548160ff0219169083151502179055508673ffffffffffffffffffffffffffffffffffffffff168173ffffffffffffffffffffffffffffffffffffffff167f8c5be1e5ebec7d5bd14f71427d1e84f3dd0314c0f7b2291e5b200ac8c7c3b925886040518082815260200191505060405180910390a33373ffffffffffffffffffffffffffffffffffffffff168173ffffffffffffffffffffffffffffffffffffffff167fddf252ad1be2c89b69c2b068fc378daa952ba7f163c4a11628f55a4df523b3ef876040518082815260200191505060405180910390a33373ffffffffffffffffffffffffffffffffffffffff168773ffffffffffffffffffffffffffffffffffffffff168273ffffffffffffffffffffffffffffffffffffffff167f43a220267705e74ee2ceafd46afc841850db6f85a662189a7def697bbdd90ffb8989604051808381526020018281526020019250505060405180910390a460019250505095945050505050565b600080600260003373ffffffffffffffffffffffffffffffffffffffff1673ffffffffffffffffffffffffffffffffffffffff16815260200190815260200160002060008573ffffffffffffffffffffffffffffffffffffffff1673ffffffffffffffffffffffffffffffffffffffff1681526020019081526020016000205490508083101515611f36576000600260003373ffffffffffffffffffffffffffffffffffffffff1673ffffffffffffffffffffffffffffffffffffffff16815260200190815260200160002060008673ffffffffffffffffffffffffffffffffffffffff1673ffffffffffffffffffffffffffffffffffffffff16815260200190815260200160002081905550611fca565b611f498382613ce590919063ffffffff16565b600260003373ffffffffffffffffffffffffffffffffffffffff1673ffffffffffffffffffffffffffffffffffffffff16815260200190815260200160002060008673ffffffffffffffffffffffffffffffffffffffff1673ffffffffffffffffffffffffffffffffffffffff168152602001908152602001600020819055505b8373ffffffffffffffffffffffffffffffffffffffff163373ffffffffffffffffffffffffffffffffffffffff167f8c5be1e5ebec7d5bd14f71427d1e84f3dd0314c0f7b2291e5b200ac8c7c3b925600260003373ffffffffffffffffffffffffffffffffffffffff1673ffffffffffffffffffffffffffffffffffffffff16815260200190815260200160002060008873ffffffffffffffffffffffffffffffffffffffff1673ffffffffffffffffffffffffffffffffffffffff168152602001908152602001600020546040518082815260200191505060405180910390a3600191505092915050565b60008060008373ffffffffffffffffffffffffffffffffffffffff1673ffffffffffffffffffffffffffffffffffffffff168152602001908152602001600020549050919050565b600080600080600073ffffffffffffffffffffffffffffffffffffffff168873ffffffffffffffffffffffffffffffffffffffff161415151561214057600080fd5b6000151560038a6040518082805190602001908083835b60208310151561217c5780518252602082019150602081019050602083039250612157565b6001836020036101000a038019825116818451168082178552505050505050905001915050908152602001604051809103902060009054906101000a900460ff1615151415156121cb57600080fd5b6121d830898989896117ec565b92506121e4838a611339565b9150600073ffffffffffffffffffffffffffffffffffffffff168273ffffffffffffffffffffffffffffffffffffffff161415151561222257600080fd5b600260008373ffffffffffffffffffffffffffffffffffffffff1673ffffffffffffffffffffffffffffffffffffffff16815260200190815260200160002060008973ffffffffffffffffffffffffffffffffffffffff1673ffffffffffffffffffffffffffffffffffffffff16815260200190815260200160002054905080871115612330576000600260008473ffffffffffffffffffffffffffffffffffffffff1673ffffffffffffffffffffffffffffffffffffffff16815260200190815260200160002060008a73ffffffffffffffffffffffffffffffffffffffff1673ffffffffffffffffffffffffffffffffffffffff168152602001908152602001600020819055506123c4565b6123438782613ce590919063ffffffff16565b600260008473ffffffffffffffffffffffffffffffffffffffff1673ffffffffffffffffffffffffffffffffffffffff16815260200190815260200160002060008a73ffffffffffffffffffffffffffffffffffffffff1673ffffffffffffffffffffffffffffffffffffffff168152602001908152602001600020819055505b612415866000808573ffffffffffffffffffffffffffffffffffffffff1673ffffffffffffffffffffffffffffffffffffffff16815260200190815260200160002054613ce590919063ffffffff16565b6000808473ffffffffffffffffffffffffffffffffffffffff1673ffffffffffffffffffffffffffffffffffffffff168152602001908152602001600020819055506124a8866000803373ffffffffffffffffffffffffffffffffffffffff1673ffffffffffffffffffffffffffffffffffffffff16815260200190815260200160002054613cfe90919063ffffffff16565b6000803373ffffffffffffffffffffffffffffffffffffffff1673ffffffffffffffffffffffffffffffffffffffff16815260200190815260200160002081905550600160038a6040518082805190602001908083835b60208310151561252457805182526020820191506020810190506020830392506124ff565b6001836020036101000a038019825116818451168082178552505050505050905001915050908152602001604051809103902060006101000a81548160ff0219169083151502179055508773ffffffffffffffffffffffffffffffffffffffff168273ffffffffffffffffffffffffffffffffffffffff167f8c5be1e5ebec7d5bd14f71427d1e84f3dd0314c0f7b2291e5b200ac8c7c3b925896040518082815260200191505060405180910390a33373ffffffffffffffffffffffffffffffffffffffff168273ffffffffffffffffffffffffffffffffffffffff167fddf252ad1be2c89b69c2b068fc378daa952ba7f163c4a11628f55a4df523b3ef886040518082815260200191505060405180910390a33373ffffffffffffffffffffffffffffffffffffffff168873ffffffffffffffffffffffffffffffffffffffff168373ffffffffffffffffffffffffffffffffffffffff167f43a220267705e74ee2ceafd46afc841850db6f85a662189a7def697bbdd90ffb600260008773ffffffffffffffffffffffffffffffffffffffff1673ffffffffffffffffffffffffffffffffffffffff16815260200190815260200160002060008d73ffffffffffffffffffffffffffffffffffffffff1673ffffffffffffffffffffffffffffffffffffffff168152602001908152602001600020548a604051808381526020018281526020019250505060405180910390a46001935050505095945050505050565b600063a45f71ff7c010000000000000000000000000000000000000000000000000000000002868686868660405160200180877bffffffffffffffffffffffffffffffffffffffffffffffffffffffff19167bffffffffffffffffffffffffffffffffffffffffffffffffffffffff191681526004018673ffffffffffffffffffffffffffffffffffffffff1673ffffffffffffffffffffffffffffffffffffffff166c010000000000000000000000000281526014018573ffffffffffffffffffffffffffffffffffffffff1673ffffffffffffffffffffffffffffffffffffffff166c0100000000000000000000000002815260140184815260200183815260200182815260200196505050505050506040516020818303038152906040526040518082805190602001908083835b60208310151561289e5780518252602082019150602081019050602083039250612879565b6001836020036101000a0380198251168184511680821785525050505050509050019150506040518091039020905095945050505050565b60008060003373ffffffffffffffffffffffffffffffffffffffff1673ffffffffffffffffffffffffffffffffffffffff16815260200190815260200160002054821115151561292557600080fd5b600073ffffffffffffffffffffffffffffffffffffffff168373ffffffffffffffffffffffffffffffffffffffff161415151561296157600080fd5b6129b2826000803373ffffffffffffffffffffffffffffffffffffffff1673ffffffffffffffffffffffffffffffffffffffff16815260200190815260200160002054613ce590919063ffffffff16565b6000803373ffffffffffffffffffffffffffffffffffffffff1673ffffffffffffffffffffffffffffffffffffffff16815260200190815260200160002081905550612a45826000808673ffffffffffffffffffffffffffffffffffffffff1673ffffffffffffffffffffffffffffffffffffffff16815260200190815260200160002054613cfe90919063ffffffff16565b6000808573ffffffffffffffffffffffffffffffffffffffff1673ffffffffffffffffffffffffffffffffffffffff168152602001908152602001600020819055508273ffffffffffffffffffffffffffffffffffffffff163373ffffffffffffffffffffffffffffffffffffffff167fddf252ad1be2c89b69c2b068fc378daa952ba7f163c4a11628f55a4df523b3ef846040518082815260200191505060405180910390a36001905092915050565b60008060008073ffffffffffffffffffffffffffffffffffffffff168773ffffffffffffffffffffffffffffffffffffffff1614151515612b3657600080fd5b600015156003896040518082805190602001908083835b602083101515612b725780518252602082019150602081019050602083039250612b4d565b6001836020036101000a038019825116818451168082178552505050505050905001915050908152602001604051809103902060009054906101000a900460ff161515141515612bc157600080fd5b612bce3088888888612748565b9150612bda8289611339565b9050600073ffffffffffffffffffffffffffffffffffffffff168173ffffffffffffffffffffffffffffffffffffffff1614151515612c1857600080fd5b612ca786600260008473ffffffffffffffffffffffffffffffffffffffff1673ffffffffffffffffffffffffffffffffffffffff16815260200190815260200160002060008a73ffffffffffffffffffffffffffffffffffffffff1673ffffffffffffffffffffffffffffffffffffffff16815260200190815260200160002054613cfe90919063ffffffff16565b600260008373ffffffffffffffffffffffffffffffffffffffff1673ffffffffffffffffffffffffffffffffffffffff16815260200190815260200160002060008973ffffffffffffffffffffffffffffffffffffffff1673ffffffffffffffffffffffffffffffffffffffff16815260200190815260200160002081905550612d78856000808473ffffffffffffffffffffffffffffffffffffffff1673ffffffffffffffffffffffffffffffffffffffff16815260200190815260200160002054613ce590919063ffffffff16565b6000808373ffffffffffffffffffffffffffffffffffffffff1673ffffffffffffffffffffffffffffffffffffffff16815260200190815260200160002081905550612e0b856000803373ffffffffffffffffffffffffffffffffffffffff1673ffffffffffffffffffffffffffffffffffffffff16815260200190815260200160002054613cfe90919063ffffffff16565b6000803373ffffffffffffffffffffffffffffffffffffffff1673ffffffffffffffffffffffffffffffffffffffff1681526020019081526020016000208190555060016003896040518082805190602001908083835b602083101515612e875780518252602082019150602081019050602083039250612e62565b6001836020036101000a038019825116818451168082178552505050505050905001915050908152602001604051809103902060006101000a81548160ff0219169083151502179055508673ffffffffffffffffffffffffffffffffffffffff168173ffffffffffffffffffffffffffffffffffffffff167f8c5be1e5ebec7d5bd14f71427d1e84f3dd0314c0f7b2291e5b200ac8c7c3b925600260008573ffffffffffffffffffffffffffffffffffffffff1673ffffffffffffffffffffffffffffffffffffffff16815260200190815260200160002060008b73ffffffffffffffffffffffffffffffffffffffff1673ffffffffffffffffffffffffffffffffffffffff168152602001908152602001600020546040518082815260200191505060405180910390a33373ffffffffffffffffffffffffffffffffffffffff168173ffffffffffffffffffffffffffffffffffffffff167fddf252ad1be2c89b69c2b068fc378daa952ba7f163c4a11628f55a4df523b3ef876040518082815260200191505060405180910390a33373ffffffffffffffffffffffffffffffffffffffff168773ffffffffffffffffffffffffffffffffffffffff168273ffffffffffffffffffffffffffffffffffffffff167f43a220267705e74ee2ceafd46afc841850db6f85a662189a7def697bbdd90ffb600260008673ffffffffffffffffffffffffffffffffffffffff1673ffffffffffffffffffffffffffffffffffffffff16815260200190815260200160002060008c73ffffffffffffffffffffffffffffffffffffffff1673ffffffffffffffffffffffffffffffffffffffff1681526020019081526020016000205489604051808381526020018281526020019250505060405180910390a460019250505095945050505050565b600063b7656dc57c01000000000000000000000000000000000000000000000000000000000287878787878760405160200180887bffffffffffffffffffffffffffffffffffffffffffffffffffffffff19167bffffffffffffffffffffffffffffffffffffffffffffffffffffffff191681526004018773ffffffffffffffffffffffffffffffffffffffff1673ffffffffffffffffffffffffffffffffffffffff166c010000000000000000000000000281526014018673ffffffffffffffffffffffffffffffffffffffff1673ffffffffffffffffffffffffffffffffffffffff166c010000000000000000000000000281526014018573ffffffffffffffffffffffffffffffffffffffff1673ffffffffffffffffffffffffffffffffffffffff166c010000000000000000000000000281526014018481526020018381526020018281526020019750505050505050506040516020818303038152906040526040518082805190602001908083835b6020831015156132bf578051825260208201915060208101905060208303925061329a565b6001836020036101000a038019825116818451168082178552505050505050905001915050604051809103902090509695505050505050565b60008060008073ffffffffffffffffffffffffffffffffffffffff168773ffffffffffffffffffffffffffffffffffffffff161415151561333857600080fd5b6000151560038a6040518082805190602001908083835b602083101515613374578051825260208201915060208101905060208303925061334f565b6001836020036101000a038019825116818451168082178552505050505050905001915050908152602001604051809103902060009054906101000a900460ff1615151415156133c357600080fd5b6133d1308989898989613126565b91506133dd828a611339565b9050600073ffffffffffffffffffffffffffffffffffffffff168173ffffffffffffffffffffffffffffffffffffffff161415151561341b57600080fd5b61346c866000808b73ffffffffffffffffffffffffffffffffffffffff1673ffffffffffffffffffffffffffffffffffffffff16815260200190815260200160002054613ce590919063ffffffff16565b6000808a73ffffffffffffffffffffffffffffffffffffffff1673ffffffffffffffffffffffffffffffffffffffff168152602001908152602001600020819055506134ff866000808a73ffffffffffffffffffffffffffffffffffffffff1673ffffffffffffffffffffffffffffffffffffffff16815260200190815260200160002054613cfe90919063ffffffff16565b6000808973ffffffffffffffffffffffffffffffffffffffff1673ffffffffffffffffffffffffffffffffffffffff168152602001908152602001600020819055506135d086600260008b73ffffffffffffffffffffffffffffffffffffffff1673ffffffffffffffffffffffffffffffffffffffff16815260200190815260200160002060008473ffffffffffffffffffffffffffffffffffffffff1673ffffffffffffffffffffffffffffffffffffffff16815260200190815260200160002054613ce590919063ffffffff16565b600260008a73ffffffffffffffffffffffffffffffffffffffff1673ffffffffffffffffffffffffffffffffffffffff16815260200190815260200160002060008373ffffffffffffffffffffffffffffffffffffffff1673ffffffffffffffffffffffffffffffffffffffff168152602001908152602001600020819055506136a1856000808473ffffffffffffffffffffffffffffffffffffffff1673ffffffffffffffffffffffffffffffffffffffff16815260200190815260200160002054613ce590919063ffffffff16565b6000808373ffffffffffffffffffffffffffffffffffffffff1673ffffffffffffffffffffffffffffffffffffffff16815260200190815260200160002081905550613734856000803373ffffffffffffffffffffffffffffffffffffffff1673ffffffffffffffffffffffffffffffffffffffff16815260200190815260200160002054613cfe90919063ffffffff16565b6000803373ffffffffffffffffffffffffffffffffffffffff1673ffffffffffffffffffffffffffffffffffffffff16815260200190815260200160002081905550600160038a6040518082805190602001908083835b6020831015156137b0578051825260208201915060208101905060208303925061378b565b6001836020036101000a038019825116818451168082178552505050505050905001915050908152602001604051809103902060006101000a81548160ff0219169083151502179055508673ffffffffffffffffffffffffffffffffffffffff168873ffffffffffffffffffffffffffffffffffffffff167fddf252ad1be2c89b69c2b068fc378daa952ba7f163c4a11628f55a4df523b3ef886040518082815260200191505060405180910390a33373ffffffffffffffffffffffffffffffffffffffff168173ffffffffffffffffffffffffffffffffffffffff167fddf252ad1be2c89b69c2b068fc378daa952ba7f163c4a11628f55a4df523b3ef876040518082815260200191505060405180910390a36001925050509695505050505050565b600061396582600260003373ffffffffffffffffffffffffffffffffffffffff1673ffffffffffffffffffffffffffffffffffffffff16815260200190815260200160002060008673ffffffffffffffffffffffffffffffffffffffff1673ffffffffffffffffffffffffffffffffffffffff16815260200190815260200160002054613cfe90919063ffffffff16565b600260003373ffffffffffffffffffffffffffffffffffffffff1673ffffffffffffffffffffffffffffffffffffffff16815260200190815260200160002060008573ffffffffffffffffffffffffffffffffffffffff1673ffffffffffffffffffffffffffffffffffffffff168152602001908152602001600020819055508273ffffffffffffffffffffffffffffffffffffffff163373ffffffffffffffffffffffffffffffffffffffff167f8c5be1e5ebec7d5bd14f71427d1e84f3dd0314c0f7b2291e5b200ac8c7c3b925600260003373ffffffffffffffffffffffffffffffffffffffff1673ffffffffffffffffffffffffffffffffffffffff16815260200190815260200160002060008773ffffffffffffffffffffffffffffffffffffffff1673ffffffffffffffffffffffffffffffffffffffff168152602001908152602001600020546040518082815260200191505060405180910390a36001905092915050565b6000600260008473ffffffffffffffffffffffffffffffffffffffff1673ffffffffffffffffffffffffffffffffffffffff16815260200190815260200160002060008373ffffffffffffffffffffffffffffffffffffffff1673ffffffffffffffffffffffffffffffffffffffff16815260200190815260200160002054905092915050565b600063f7ac9c2e7c010000000000000000000000000000000000000000000000000000000002868686868660405160200180877bffffffffffffffffffffffffffffffffffffffffffffffffffffffff19167bffffffffffffffffffffffffffffffffffffffffffffffffffffffff191681526004018673ffffffffffffffffffffffffffffffffffffffff1673ffffffffffffffffffffffffffffffffffffffff166c010000000000000000000000000281526014018573ffffffffffffffffffffffffffffffffffffffff1673ffffffffffffffffffffffffffffffffffffffff166c0100000000000000000000000002815260140184815260200183815260200182815260200196505050505050506040516020818303038152906040526040518082805190602001908083835b602083101515613cad5780518252602082019150602081019050602083039250613c88565b6001836020036101000a0380198251168184511680821785525050505050509050019150506040518091039020905095945050505050565b6000828211151515613cf357fe5b818303905092915050565b60008183019050828110151515613d1157fe5b809050929150505600a165627a7a723058201365aba29e9ab3dacc57d2c94fbd85ee626e0d2e83aed5b016d33a7769fce5160029",
  "source": "pragma solidity ^0.4.18;\n\nimport \"./ERC865.sol\";\nimport \"openzeppelin-solidity/contracts/token/ERC20/StandardToken.sol\";\n\n/**\n * @title ERC865Token Token\n *\n * ERC865Token allows users paying transfers in tokens instead of gas\n * https://github.com/ethereum/EIPs/issues/865\n *\n */\n\ncontract ERC865Token is ERC865, StandardToken {\n\n    /* Nonces of transfers performed */\n    mapping(bytes => bool) signatures;\n\n    event TransferPreSigned(address indexed from, address indexed to, address indexed delegate, uint256 amount, uint256 fee);\n    event ApprovalPreSigned(address indexed from, address indexed to, address indexed delegate, uint256 amount, uint256 fee);\n\n    /**\n     * @notice Submit a presigned transfer\n     * @param _signature bytes The signature, issued by the owner.\n     * @param _to address The address which you want to transfer to.\n     * @param _value uint256 The amount of tokens to be transferred.\n     * @param _fee uint256 The amount of tokens paid to msg.sender, by the owner.\n     * @param _nonce uint256 Presigned transaction number.\n     */\n    function transferPreSigned(\n        bytes _signature,\n        address _to,\n        uint256 _value,\n        uint256 _fee,\n        uint256 _nonce\n    )\n        public\n        returns (bool)\n    {\n        require(_to != address(0));\n        require(signatures[_signature] == false);\n\n        bytes32 hashedTx = transferPreSignedHashing(address(this), _to, _value, _fee, _nonce);\n\n        address from = recover(hashedTx, _signature);\n        require(from != address(0));\n\n        balances[from] = balances[from].sub(_value).sub(_fee);\n        balances[_to] = balances[_to].add(_value);\n        balances[msg.sender] = balances[msg.sender].add(_fee);\n        signatures[_signature] = true;\n\n        emit Transfer(from, _to, _value);\n        emit Transfer(from, msg.sender, _fee);\n        emit TransferPreSigned(from, _to, msg.sender, _value, _fee);\n        return true;\n    }\n\n    /**\n     * @notice Submit a presigned approval\n     * @param _signature bytes The signature, issued by the owner.\n     * @param _spender address The address which will spend the funds.\n     * @param _value uint256 The amount of tokens to allow.\n     * @param _fee uint256 The amount of tokens paid to msg.sender, by the owner.\n     * @param _nonce uint256 Presigned transaction number.\n     */\n    function approvePreSigned(\n        bytes _signature,\n        address _spender,\n        uint256 _value,\n        uint256 _fee,\n        uint256 _nonce\n    )\n        public\n        returns (bool)\n    {\n        require(_spender != address(0));\n        require(signatures[_signature] == false);\n\n        bytes32 hashedTx = approvePreSignedHashing(address(this), _spender, _value, _fee, _nonce);\n        address from = recover(hashedTx, _signature);\n        require(from != address(0));\n\n        allowed[from][_spender] = _value;\n        balances[from] = balances[from].sub(_fee);\n        balances[msg.sender] = balances[msg.sender].add(_fee);\n        signatures[_signature] = true;\n\n        emit Approval(from, _spender, _value);\n        emit Transfer(from, msg.sender, _fee);\n        emit ApprovalPreSigned(from, _spender, msg.sender, _value, _fee);\n        return true;\n    }\n\n    /**\n     * @notice Increase the amount of tokens that an owner allowed to a spender.\n     * @param _signature bytes The signature, issued by the owner.\n     * @param _spender address The address which will spend the funds.\n     * @param _addedValue uint256 The amount of tokens to increase the allowance by.\n     * @param _fee uint256 The amount of tokens paid to msg.sender, by the owner.\n     * @param _nonce uint256 Presigned transaction number.\n     */\n    function increaseApprovalPreSigned(\n        bytes _signature,\n        address _spender,\n        uint256 _addedValue,\n        uint256 _fee,\n        uint256 _nonce\n    )\n        public\n        returns (bool)\n    {\n        require(_spender != address(0));\n        require(signatures[_signature] == false);\n\n        bytes32 hashedTx = increaseApprovalPreSignedHashing(address(this), _spender, _addedValue, _fee, _nonce);\n        address from = recover(hashedTx, _signature);\n        require(from != address(0));\n\n        allowed[from][_spender] = allowed[from][_spender].add(_addedValue);\n        balances[from] = balances[from].sub(_fee);\n        balances[msg.sender] = balances[msg.sender].add(_fee);\n        signatures[_signature] = true;\n\n        emit Approval(from, _spender, allowed[from][_spender]);\n        emit Transfer(from, msg.sender, _fee);\n        emit ApprovalPreSigned(from, _spender, msg.sender, allowed[from][_spender], _fee);\n        return true;\n    }\n\n    /**\n     * @notice Decrease the amount of tokens that an owner allowed to a spender.\n     * @param _signature bytes The signature, issued by the owner\n     * @param _spender address The address which will spend the funds.\n     * @param _subtractedValue uint256 The amount of tokens to decrease the allowance by.\n     * @param _fee uint256 The amount of tokens paid to msg.sender, by the owner.\n     * @param _nonce uint256 Presigned transaction number.\n     */\n    function decreaseApprovalPreSigned(\n        bytes _signature,\n        address _spender,\n        uint256 _subtractedValue,\n        uint256 _fee,\n        uint256 _nonce\n    )\n        public\n        returns (bool)\n    {\n        require(_spender != address(0));\n        require(signatures[_signature] == false);\n\n        bytes32 hashedTx = decreaseApprovalPreSignedHashing(address(this), _spender, _subtractedValue, _fee, _nonce);\n        address from = recover(hashedTx, _signature);\n        require(from != address(0));\n\n        uint oldValue = allowed[from][_spender];\n        if (_subtractedValue > oldValue) {\n            allowed[from][_spender] = 0;\n        } else {\n            allowed[from][_spender] = oldValue.sub(_subtractedValue);\n        }\n        balances[from] = balances[from].sub(_fee);\n        balances[msg.sender] = balances[msg.sender].add(_fee);\n        signatures[_signature] = true;\n\n        emit Approval(from, _spender, _subtractedValue);\n        emit Transfer(from, msg.sender, _fee);\n        emit ApprovalPreSigned(from, _spender, msg.sender, allowed[from][_spender], _fee);\n        return true;\n    }\n\n    /**\n     * @notice Transfer tokens from one address to another\n     * @param _signature bytes The signature, issued by the spender.\n     * @param _from address The address which you want to send tokens from.\n     * @param _to address The address which you want to transfer to.\n     * @param _value uint256 The amount of tokens to be transferred.\n     * @param _fee uint256 The amount of tokens paid to msg.sender, by the spender.\n     * @param _nonce uint256 Presigned transaction number.\n     */\n    function transferFromPreSigned(\n        bytes _signature,\n        address _from,\n        address _to,\n        uint256 _value,\n        uint256 _fee,\n        uint256 _nonce\n    )\n        public\n        returns (bool)\n    {\n        require(_to != address(0));\n        require(signatures[_signature] == false);\n\n        bytes32 hashedTx = transferFromPreSignedHashing(address(this), _from, _to, _value, _fee, _nonce);\n\n        address spender = recover(hashedTx, _signature);\n        require(spender != address(0));\n\n        balances[_from] = balances[_from].sub(_value);\n        balances[_to] = balances[_to].add(_value);\n        allowed[_from][spender] = allowed[_from][spender].sub(_value);\n\n        balances[spender] = balances[spender].sub(_fee);\n        balances[msg.sender] = balances[msg.sender].add(_fee);\n        signatures[_signature] = true;\n\n        emit Transfer(_from, _to, _value);\n        emit Transfer(spender, msg.sender, _fee);\n        return true;\n    }\n\n\n    /**\n     * @notice Hash (keccak256) of the payload used by transferPreSigned\n     * @param _token address The address of the token.\n     * @param _to address The address which you want to transfer to.\n     * @param _value uint256 The amount of tokens to be transferred.\n     * @param _fee uint256 The amount of tokens paid to msg.sender, by the owner.\n     * @param _nonce uint256 Presigned transaction number.\n     */\n    function transferPreSignedHashing(\n        address _token,\n        address _to,\n        uint256 _value,\n        uint256 _fee,\n        uint256 _nonce\n    )\n        public\n        pure\n        returns (bytes32)\n    {\n        /* \"48664c16\": transferPreSignedHashing(address,address,address,uint256,uint256,uint256) */\n        return keccak256(abi.encodePacked(bytes4(0x48664c16), _token, _to, _value, _fee, _nonce));\n    }\n\n    /**\n     * @notice Hash (keccak256) of the payload used by approvePreSigned\n     * @param _token address The address of the token\n     * @param _spender address The address which will spend the funds.\n     * @param _value uint256 The amount of tokens to allow.\n     * @param _fee uint256 The amount of tokens paid to msg.sender, by the owner.\n     * @param _nonce uint256 Presigned transaction number.\n     */\n    function approvePreSignedHashing(\n        address _token,\n        address _spender,\n        uint256 _value,\n        uint256 _fee,\n        uint256 _nonce\n    )\n        public\n        pure\n        returns (bytes32)\n    {\n        /* \"f7ac9c2e\": approvePreSignedHashing(address,address,uint256,uint256,uint256) */\n        return keccak256(abi.encodePacked(bytes4(0xf7ac9c2e), _token, _spender, _value, _fee, _nonce));\n    }\n\n    /**\n     * @notice Hash (keccak256) of the payload used by increaseApprovalPreSigned\n     * @param _token address The address of the token\n     * @param _spender address The address which will spend the funds.\n     * @param _addedValue uint256 The amount of tokens to increase the allowance by.\n     * @param _fee uint256 The amount of tokens paid to msg.sender, by the owner.\n     * @param _nonce uint256 Presigned transaction number.\n     */\n    function increaseApprovalPreSignedHashing(\n        address _token,\n        address _spender,\n        uint256 _addedValue,\n        uint256 _fee,\n        uint256 _nonce\n    )\n        public\n        pure\n        returns (bytes32)\n    {\n        /* \"a45f71ff\": increaseApprovalPreSignedHashing(address,address,uint256,uint256,uint256) */\n        return keccak256(abi.encodePacked(bytes4(0xa45f71ff), _token, _spender, _addedValue, _fee, _nonce));\n    }\n\n     /**\n      * @notice Hash (keccak256) of the payload used by decreaseApprovalPreSigned\n      * @param _token address The address of the token\n      * @param _spender address The address which will spend the funds.\n      * @param _subtractedValue uint256 The amount of tokens to decrease the allowance by.\n      * @param _fee uint256 The amount of tokens paid to msg.sender, by the owner.\n      * @param _nonce uint256 Presigned transaction number.\n      */\n    function decreaseApprovalPreSignedHashing(\n        address _token,\n        address _spender,\n        uint256 _subtractedValue,\n        uint256 _fee,\n        uint256 _nonce\n    )\n        public\n        pure\n        returns (bytes32)\n    {\n        /* \"59388d78\": decreaseApprovalPreSignedHashing(address,address,uint256,uint256,uint256) */\n        return keccak256(abi.encodePacked(bytes4(0x59388d78), _token, _spender, _subtractedValue, _fee, _nonce));\n    }\n\n    /**\n     * @notice Hash (keccak256) of the payload used by transferFromPreSigned\n     * @param _token address The address of the token\n     * @param _from address The address which you want to send tokens from.\n     * @param _to address The address which you want to transfer to.\n     * @param _value uint256 The amount of tokens to be transferred.\n     * @param _fee uint256 The amount of tokens paid to msg.sender, by the spender.\n     * @param _nonce uint256 Presigned transaction number.\n     */\n    function transferFromPreSignedHashing(\n        address _token,\n        address _from,\n        address _to,\n        uint256 _value,\n        uint256 _fee,\n        uint256 _nonce\n    )\n        public\n        pure\n        returns (bytes32)\n    {\n        /* \"b7656dc5\": transferFromPreSignedHashing(address,address,address,uint256,uint256,uint256) */\n        return keccak256(abi.encodePacked(bytes4(0xb7656dc5), _token, _from, _to, _value, _fee, _nonce));\n    }\n\n    /**\n     * @notice Recover signer address from a message by using his signature\n     * @param hash bytes32 message, the hash is the signed message. What is recovered is the signer address.\n     * @param sig bytes signature, the signature is generated using web3.eth.sign()\n     */\n    function recover(bytes32 hash, bytes sig) public pure returns (address) {\n      bytes32 r;\n      bytes32 s;\n      uint8 v;\n\n      //Check the signature length\n      if (sig.length != 65) {\n        return (address(0));\n      }\n\n      // Divide the signature in r, s and v variables\n      assembly {\n        r := mload(add(sig, 32))\n        s := mload(add(sig, 64))\n        v := byte(0, mload(add(sig, 96)))\n      }\n\n      // Version of signature should be 27 or 28, but 0 and 1 are also possible versions\n      if (v < 27) {\n        v += 27;\n      }\n\n      // If the version is correct return the signer address\n      if (v != 27 && v != 28) {\n        return (address(0));\n      } else {\n        return ecrecover(hash, v, r, s);\n      }\n    }\n\n}\n",
  "sourcePath": "/home/jerzy/Documents/mojo-cloud-functions-old/functions/contracts/ERC865Token.sol",
  "compiler": {
    "name": "solc",
    "version": "0.4.24+commit.e67f0147.Emscripten.clang"
  },
  "schemaVersion": "2.0.1",
  "updatedAt": "2018-12-13T21:34:26.303Z"
}